{
  "_format": "hh-sol-artifact-1",
  "contractName": "FoolLogic",
  "sourceName": "contracts/FoolLogic.sol",
  "abi": [
    {
      "inputs": [
        {
          "internalType": "address",
          "name": "_eternalStorage",
          "type": "address"
        }
      ],
      "stateMutability": "nonpayable",
      "type": "constructor"
    },
    {
      "anonymous": false,
      "inputs": [
        {
          "indexed": true,
          "internalType": "address",
          "name": "previousOwner",
          "type": "address"
        },
        {
          "indexed": true,
          "internalType": "address",
          "name": "newOwner",
          "type": "address"
        }
      ],
      "name": "OwnershipTransferred",
      "type": "event"
    },
    {
      "anonymous": false,
      "inputs": [
        {
          "indexed": false,
          "internalType": "address",
          "name": "account",
          "type": "address"
        }
      ],
      "name": "Paused",
      "type": "event"
    },
    {
      "anonymous": false,
      "inputs": [
        {
          "indexed": false,
          "internalType": "address",
          "name": "account",
          "type": "address"
        }
      ],
      "name": "Unpaused",
      "type": "event"
    },
    {
      "inputs": [],
      "name": "owner",
      "outputs": [
        {
          "internalType": "address",
          "name": "",
          "type": "address"
        }
      ],
      "stateMutability": "view",
      "type": "function"
    },
    {
      "inputs": [],
      "name": "pause",
      "outputs": [],
      "stateMutability": "nonpayable",
      "type": "function"
    },
    {
      "inputs": [],
      "name": "paused",
      "outputs": [
        {
          "internalType": "bool",
          "name": "",
          "type": "bool"
        }
      ],
      "stateMutability": "view",
      "type": "function"
    },
    {
      "inputs": [
        {
          "internalType": "address",
          "name": "_lastFool",
          "type": "address"
        },
        {
          "internalType": "uint256",
          "name": "_lastDeposit",
          "type": "uint256"
        }
      ],
      "name": "recordLastFool",
      "outputs": [],
      "stateMutability": "nonpayable",
      "type": "function"
    },
    {
      "inputs": [],
      "name": "renounceOwnership",
      "outputs": [],
      "stateMutability": "nonpayable",
      "type": "function"
    },
    {
      "inputs": [
        {
          "internalType": "address",
          "name": "newOwner",
          "type": "address"
        }
      ],
      "name": "transferOwnership",
      "outputs": [],
      "stateMutability": "nonpayable",
      "type": "function"
    },
    {
      "inputs": [],
      "name": "unpause",
      "outputs": [],
      "stateMutability": "nonpayable",
      "type": "function"
    }
  ],
  "bytecode": "0x60806040523480156200001157600080fd5b5060405162001047380380620010478339818101604052810190620000379190620001a3565b620000576200004b620000c060201b60201c565b620000c860201b60201c565b60008060146101000a81548160ff0219169083151502179055506001808190555080600260006101000a81548173ffffffffffffffffffffffffffffffffffffffff021916908373ffffffffffffffffffffffffffffffffffffffff160217905550506200021d565b600033905090565b60008060009054906101000a900473ffffffffffffffffffffffffffffffffffffffff169050816000806101000a81548173ffffffffffffffffffffffffffffffffffffffff021916908373ffffffffffffffffffffffffffffffffffffffff1602179055508173ffffffffffffffffffffffffffffffffffffffff168173ffffffffffffffffffffffffffffffffffffffff167f8be0079c531659141344cd1fd0a4f28419497f9722a3daafe3b4186f6b6457e060405160405180910390a35050565b6000815190506200019d8162000203565b92915050565b600060208284031215620001b657600080fd5b6000620001c6848285016200018c565b91505092915050565b6000620001dc82620001e3565b9050919050565b600073ffffffffffffffffffffffffffffffffffffffff82169050919050565b6200020e81620001cf565b81146200021a57600080fd5b50565b610e1a806200022d6000396000f3fe608060405234801561001057600080fd5b506004361061007d5760003560e01c8063715018a61161005b578063715018a6146100c65780638456cb59146100d05780638da5cb5b146100da578063f2fde38b146100f85761007d565b80633f4ba83a146100825780635c975abb1461008c578063697716fb146100aa575b600080fd5b61008a610114565b005b610094610126565b6040516100a19190610aab565b60405180910390f35b6100c460048036038101906100bf91906108da565b61013c565b005b6100ce6104aa565b005b6100d86104be565b005b6100e26104d0565b6040516100ef9190610a67565b60405180910390f35b610112600480360381019061010d9190610888565b6104f9565b005b61011c61057d565b6101246105fb565b565b60008060149054906101000a900460ff16905090565b61014461057d565b61014c61065d565b60026001541415610192576040517f08c379a000000000000000000000000000000000000000000000000000000000815260040161018990610b66565b60405180910390fd5b6002600181905550600073dac17f958d2ee523a2206206994597c13d831ec790506000600260009054906101000a900473ffffffffffffffffffffffffffffffffffffffff16905060008173ffffffffffffffffffffffffffffffffffffffff16633c78934d6040518163ffffffff1660e01b815260040160206040518083038186803b15801561022257600080fd5b505afa158015610236573d6000803e3d6000fd5b505050506040513d601f19601f8201168201806040525081019061025a919061093f565b905060008273ffffffffffffffffffffffffffffffffffffffff16635cbcf01d6040518163ffffffff1660e01b815260040160206040518083038186803b1580156102a457600080fd5b505afa1580156102b8573d6000803e3d6000fd5b505050506040513d601f19601f820116820180604052508101906102dc91906108b1565b90506002826102eb9190610bb2565b85101561032d576040517f08c379a000000000000000000000000000000000000000000000000000000000815260040161032490610b06565b60405180910390fd5b8273ffffffffffffffffffffffffffffffffffffffff166303965994866040518263ffffffff1660e01b81526004016103669190610b86565b600060405180830381600087803b15801561038057600080fd5b505af1158015610394573d6000803e3d6000fd5b505050508273ffffffffffffffffffffffffffffffffffffffff16639da93f7b876040518263ffffffff1660e01b81526004016103d19190610a67565b600060405180830381600087803b1580156103eb57600080fd5b505af11580156103ff573d6000803e3d6000fd5b50505050600082111561049b578373ffffffffffffffffffffffffffffffffffffffff1663a9059cbb82846040518363ffffffff1660e01b8152600401610447929190610a82565b602060405180830381600087803b15801561046157600080fd5b505af1158015610475573d6000803e3d6000fd5b505050506040513d601f19601f820116820180604052508101906104999190610916565b505b50505050600180819055505050565b6104b261057d565b6104bc60006106a7565b565b6104c661057d565b6104ce61076b565b565b60008060009054906101000a900473ffffffffffffffffffffffffffffffffffffffff16905090565b61050161057d565b600073ffffffffffffffffffffffffffffffffffffffff168173ffffffffffffffffffffffffffffffffffffffff161415610571576040517f08c379a000000000000000000000000000000000000000000000000000000000815260040161056890610ae6565b60405180910390fd5b61057a816106a7565b50565b6105856107ce565b73ffffffffffffffffffffffffffffffffffffffff166105a36104d0565b73ffffffffffffffffffffffffffffffffffffffff16146105f9576040517f08c379a00000000000000000000000000000000000000000000000000000000081526004016105f090610b46565b60405180910390fd5b565b6106036107d6565b60008060146101000a81548160ff0219169083151502179055507f5db9ee0a495bf2e6ff9c91a7834c1ba4fdd244a5e8aa4e537bd38aeae4b073aa6106466107ce565b6040516106539190610a67565b60405180910390a1565b610665610126565b156106a5576040517f08c379a000000000000000000000000000000000000000000000000000000000815260040161069c90610b26565b60405180910390fd5b565b60008060009054906101000a900473ffffffffffffffffffffffffffffffffffffffff169050816000806101000a81548173ffffffffffffffffffffffffffffffffffffffff021916908373ffffffffffffffffffffffffffffffffffffffff1602179055508173ffffffffffffffffffffffffffffffffffffffff168173ffffffffffffffffffffffffffffffffffffffff167f8be0079c531659141344cd1fd0a4f28419497f9722a3daafe3b4186f6b6457e060405160405180910390a35050565b61077361065d565b6001600060146101000a81548160ff0219169083151502179055507f62e78cea01bee320cd4e420270b5ea74000d11b0c9f74754ebdbfc544b05a2586107b76107ce565b6040516107c49190610a67565b60405180910390a1565b600033905090565b6107de610126565b61081d576040517f08c379a000000000000000000000000000000000000000000000000000000000815260040161081490610ac6565b60405180910390fd5b565b60008135905061082e81610d9f565b92915050565b60008151905061084381610d9f565b92915050565b60008151905061085881610db6565b92915050565b60008135905061086d81610dcd565b92915050565b60008151905061088281610dcd565b92915050565b60006020828403121561089a57600080fd5b60006108a88482850161081f565b91505092915050565b6000602082840312156108c357600080fd5b60006108d184828501610834565b91505092915050565b600080604083850312156108ed57600080fd5b60006108fb8582860161081f565b925050602061090c8582860161085e565b9150509250929050565b60006020828403121561092857600080fd5b600061093684828501610849565b91505092915050565b60006020828403121561095157600080fd5b600061095f84828501610873565b91505092915050565b61097181610c0c565b82525050565b61098081610c1e565b82525050565b6000610993601483610ba1565b915061099e82610c83565b602082019050919050565b60006109b6602683610ba1565b91506109c182610cac565b604082019050919050565b60006109d9601483610ba1565b91506109e482610cfb565b602082019050919050565b60006109fc601083610ba1565b9150610a0782610d24565b602082019050919050565b6000610a1f602083610ba1565b9150610a2a82610d4d565b602082019050919050565b6000610a42601f83610ba1565b9150610a4d82610d76565b602082019050919050565b610a6181610c4a565b82525050565b6000602082019050610a7c6000830184610968565b92915050565b6000604082019050610a976000830185610968565b610aa46020830184610a58565b9392505050565b6000602082019050610ac06000830184610977565b92915050565b60006020820190508181036000830152610adf81610986565b9050919050565b60006020820190508181036000830152610aff816109a9565b9050919050565b60006020820190508181036000830152610b1f816109cc565b9050919050565b60006020820190508181036000830152610b3f816109ef565b9050919050565b60006020820190508181036000830152610b5f81610a12565b9050919050565b60006020820190508181036000830152610b7f81610a35565b9050919050565b6000602082019050610b9b6000830184610a58565b92915050565b600082825260208201905092915050565b6000610bbd82610c4a565b9150610bc883610c4a565b9250817fffffffffffffffffffffffffffffffffffffffffffffffffffffffffffffffff0483118215151615610c0157610c00610c54565b5b828202905092915050565b6000610c1782610c2a565b9050919050565b60008115159050919050565b600073ffffffffffffffffffffffffffffffffffffffff82169050919050565b6000819050919050565b7f4e487b7100000000000000000000000000000000000000000000000000000000600052601160045260246000fd5b7f5061757361626c653a206e6f7420706175736564000000000000000000000000600082015250565b7f4f776e61626c653a206e6577206f776e657220697320746865207a65726f206160008201527f6464726573730000000000000000000000000000000000000000000000000000602082015250565b7f6465706f73697420697320746f6f20736d616c6c000000000000000000000000600082015250565b7f5061757361626c653a2070617573656400000000000000000000000000000000600082015250565b7f4f776e61626c653a2063616c6c6572206973206e6f7420746865206f776e6572600082015250565b7f5265656e7472616e637947756172643a207265656e7472616e742063616c6c00600082015250565b610da881610c0c565b8114610db357600080fd5b50565b610dbf81610c1e565b8114610dca57600080fd5b50565b610dd681610c4a565b8114610de157600080fd5b5056fea26469706673582212207206547a29e835aa97c593dbe1b01e2ebad922af93c6ac4b2095aa267da7a75864736f6c63430008010033",
  "linkReferences": {},
  "deployedLinkReferences": {}
}