{
  "_format": "hh-sol-artifact-1",
  "contractName": "KingOfFool",
  "sourceName": "contracts/KingOfFool.sol",
  "abi": [
    {
      "anonymous": false,
      "inputs": [
        {
          "indexed": false,
          "internalType": "address",
          "name": "",
          "type": "address"
        },
        {
          "indexed": false,
          "internalType": "uint256",
          "name": "",
          "type": "uint256"
        }
      ],
      "name": "ReceivedETH",
      "type": "event"
    },
    {
      "anonymous": false,
      "inputs": [
        {
          "indexed": false,
          "internalType": "address",
          "name": "",
          "type": "address"
        },
        {
          "indexed": false,
          "internalType": "uint256",
          "name": "",
          "type": "uint256"
        }
      ],
      "name": "ReceivedUSDC",
      "type": "event"
    },
    {
      "inputs": [],
      "name": "depositEth",
      "outputs": [],
      "stateMutability": "payable",
      "type": "function"
    },
    {
      "inputs": [
        {
          "internalType": "uint256",
          "name": "_amount",
          "type": "uint256"
        }
      ],
      "name": "depositUSDC",
      "outputs": [],
      "stateMutability": "nonpayable",
      "type": "function"
    }
  ],
  "bytecode": "0x608060405234801561001057600080fd5b5061083e806100206000396000f3fe6080604052600436106100295760003560e01c8063439370b11461002e578063f688bcfb14610038575b600080fd5b610036610061565b005b34801561004457600080fd5b5061005f600480360381019061005a9190610561565b61026f565b005b600060015411156100ca57600260015461007b91906106af565b60033461008891906106af565b10156100c9576040517f08c379a00000000000000000000000000000000000000000000000000000000081526004016100c090610673565b60405180910390fd5b5b600073ffffffffffffffffffffffffffffffffffffffff1660008054906101000a900473ffffffffffffffffffffffffffffffffffffffff1673ffffffffffffffffffffffffffffffffffffffff16146101ed5760008060009054906101000a900473ffffffffffffffffffffffffffffffffffffffff1673ffffffffffffffffffffffffffffffffffffffff163460405161016590610615565b60006040518083038185875af1925050503d80600081146101a2576040519150601f19603f3d011682016040523d82523d6000602084013e6101a7565b606091505b50509050806101eb576040517f08c379a00000000000000000000000000000000000000000000000000000000081526004016101e290610653565b60405180910390fd5b505b336000806101000a81548173ffffffffffffffffffffffffffffffffffffffff021916908373ffffffffffffffffffffffffffffffffffffffff160217905550346001819055507f4103257eaac983ca79a70d28f90dfc4fa16b619bb0c17ee7cab0d4034c279624333460405161026592919061062a565b60405180910390a1565b600060035411156102d75760028161028791906106af565b6003805461029591906106af565b10156102d6576040517f08c379a00000000000000000000000000000000000000000000000000000000081526004016102cd90610673565b60405180910390fd5b5b60007307865c6e87b9f70255377e024ace6630c1eaa37f90508073ffffffffffffffffffffffffffffffffffffffff1663a9059cbb33846040518363ffffffff1660e01b815260040161032b92919061062a565b602060405180830381600087803b15801561034557600080fd5b505af1158015610359573d6000803e3d6000fd5b505050506040513d601f19601f8201168201806040525081019061037d9190610534565b50600073ffffffffffffffffffffffffffffffffffffffff1660008054906101000a900473ffffffffffffffffffffffffffffffffffffffff1673ffffffffffffffffffffffffffffffffffffffff1614610485578073ffffffffffffffffffffffffffffffffffffffff1663a9059cbb600260009054906101000a900473ffffffffffffffffffffffffffffffffffffffff166003546040518363ffffffff1660e01b815260040161043192919061062a565b602060405180830381600087803b15801561044b57600080fd5b505af115801561045f573d6000803e3d6000fd5b505050506040513d601f19601f820116820180604052508101906104839190610534565b505b33600260006101000a81548173ffffffffffffffffffffffffffffffffffffffff021916908373ffffffffffffffffffffffffffffffffffffffff160217905550816003819055507f37b0611cbd6799c3a4a091dc43c8c26cfc846216fedd782c8d7210f40a9e422633836040516104fe92919061062a565b60405180910390a15050565b600081519050610519816107da565b92915050565b60008135905061052e816107f1565b92915050565b60006020828403121561054a57610549610780565b5b60006105588482850161050a565b91505092915050565b60006020828403121561057757610576610780565b5b60006105858482850161051f565b91505092915050565b61059781610709565b82525050565b60006105aa60148361069e565b91506105b582610785565b602082019050919050565b60006105cd60158361069e565b91506105d8826107ae565b602082019050919050565b60006105f0600083610693565b91506105fb826107d7565b600082019050919050565b61060f81610747565b82525050565b6000610620826105e3565b9150819050919050565b600060408201905061063f600083018561058e565b61064c6020830184610606565b9392505050565b6000602082019050818103600083015261066c8161059d565b9050919050565b6000602082019050818103600083015261068c816105c0565b9050919050565b600081905092915050565b600082825260208201905092915050565b60006106ba82610747565b91506106c583610747565b9250817fffffffffffffffffffffffffffffffffffffffffffffffffffffffffffffffff04831182151516156106fe576106fd610751565b5b828202905092915050565b600061071482610727565b9050919050565b60008115159050919050565b600073ffffffffffffffffffffffffffffffffffffffff82169050919050565b6000819050919050565b7f4e487b7100000000000000000000000000000000000000000000000000000000600052601160045260246000fd5b600080fd5b7f4661696c656420746f2073656e64204574686572000000000000000000000000600082015250565b7f616d6f756e7420697320746f6f20736d616c6c20210000000000000000000000600082015250565b50565b6107e38161071b565b81146107ee57600080fd5b50565b6107fa81610747565b811461080557600080fd5b5056fea264697066735822122011b537d2712e540738007c92f3b9fcb355b841e8218a9493da99ac70638be0f564736f6c63430008070033",
  "linkReferences": {},
  "deployedLinkReferences": {}
}