{
  "_format": "hh-sol-artifact-1",
  "contractName": "FoolVault",
  "sourceName": "contracts/FoolVault.sol",
  "abi": [
    {
      "inputs": [],
      "name": "getLastDeposit",
      "outputs": [
        {
          "internalType": "uint256",
          "name": "",
          "type": "uint256"
        }
      ],
      "stateMutability": "view",
      "type": "function"
    },
    {
      "inputs": [],
      "name": "getLastFool",
      "outputs": [
        {
          "internalType": "address",
          "name": "",
          "type": "address"
        }
      ],
      "stateMutability": "view",
      "type": "function"
    },
    {
      "inputs": [
        {
          "internalType": "uint256",
          "name": "_value",
          "type": "uint256"
        }
      ],
      "name": "setLastDeposit",
      "outputs": [],
      "stateMutability": "nonpayable",
      "type": "function"
    },
    {
      "inputs": [
        {
          "internalType": "address",
          "name": "_value",
          "type": "address"
        }
      ],
      "name": "setLastFool",
      "outputs": [],
      "stateMutability": "nonpayable",
      "type": "function"
    },
    {
      "inputs": [
        {
          "internalType": "address",
          "name": "_newVersion",
          "type": "address"
        }
      ],
      "name": "upgradeVersion",
      "outputs": [],
      "stateMutability": "nonpayable",
      "type": "function"
    }
  ],
  "bytecode": "0x6080604052336000806101000a81548173ffffffffffffffffffffffffffffffffffffffff021916908373ffffffffffffffffffffffffffffffffffffffff16021790555034801561005057600080fd5b5061042e806100606000396000f3fe608060405234801561001057600080fd5b50600436106100575760003560e01c8063039659941461005c5780633c78934d146100785780635cbcf01d146100965780639da93f7b146100b4578063d28eb963146100d0575b600080fd5b61007660048036038101906100719190610311565b6100ec565b005b610080610150565b60405161008d9190610373565b60405180910390f35b61009e61015a565b6040516100ab9190610358565b60405180910390f35b6100ce60048036038101906100c991906102e8565b610184565b005b6100ea60048036038101906100e591906102e8565b610222565b005b600160009054906101000a900473ffffffffffffffffffffffffffffffffffffffff1673ffffffffffffffffffffffffffffffffffffffff163373ffffffffffffffffffffffffffffffffffffffff161461014657600080fd5b8060038190555050565b6000600354905090565b6000600260009054906101000a900473ffffffffffffffffffffffffffffffffffffffff16905090565b600160009054906101000a900473ffffffffffffffffffffffffffffffffffffffff1673ffffffffffffffffffffffffffffffffffffffff163373ffffffffffffffffffffffffffffffffffffffff16146101de57600080fd5b80600260006101000a81548173ffffffffffffffffffffffffffffffffffffffff021916908373ffffffffffffffffffffffffffffffffffffffff16021790555050565b60008054906101000a900473ffffffffffffffffffffffffffffffffffffffff1673ffffffffffffffffffffffffffffffffffffffff163373ffffffffffffffffffffffffffffffffffffffff161461027a57600080fd5b80600160006101000a81548173ffffffffffffffffffffffffffffffffffffffff021916908373ffffffffffffffffffffffffffffffffffffffff16021790555050565b6000813590506102cd816103ca565b92915050565b6000813590506102e2816103e1565b92915050565b6000602082840312156102fa57600080fd5b6000610308848285016102be565b91505092915050565b60006020828403121561032357600080fd5b6000610331848285016102d3565b91505092915050565b6103438161038e565b82525050565b610352816103c0565b82525050565b600060208201905061036d600083018461033a565b92915050565b60006020820190506103886000830184610349565b92915050565b6000610399826103a0565b9050919050565b600073ffffffffffffffffffffffffffffffffffffffff82169050919050565b6000819050919050565b6103d38161038e565b81146103de57600080fd5b50565b6103ea816103c0565b81146103f557600080fd5b5056fea2646970667358221220182149a65eedabce22d1c80e01ddcd5a98cfb79ef40e74765b7109eb3c0e401d64736f6c63430008010033",
  "linkReferences": {},
  "deployedLinkReferences": {}
}